:020000040800F2
:10000000600F0020A90100084119000879160008B6
:10001000D1170008B50200080D1D000800000000FF
:100020000000000000000000000000007919000836
:100030006503000800000000431900087B19000850
:10004000C3010008C3010008C3010008C301000880
:10005000C3010008C301000867030008C3010008CA
:10006000C3010008C3010008C3010008C301000860
:10007000C3010008C3010008C3010008C301000850
:10008000B9020008C5020008C30100080000000012
:10009000000000000000000000000000C301000894
:1000A000C3010008251A0008C3010008C3010008A5
:1000B000C3010008C3010008C3010008C301000810
:1000C000C3010008C3010008C3010008C301000800
:1000D000C3010008F51C0008011D00080000000015
:1000E000C3010008C3010008C301000800000000AC
:1000F000000000000000000000000000C301000834
:1001000000000000C3010008C3010008C30100088B
:1001100000000000000000000000000000000000DF
:10012000C3010008C3010008D1020008C301000890
:10013000C3010008000000000000000000000000F3
:10014000000000000000000000000000C3010008E3
:10015000C3010008C3010008DD020008C301000854
:10016000C3010008C30100080000000000000000F7
:10017000000000000000000000000000000000007F
:1001800000000000C30100080000000000000000A3
:10019000C3010008DFF80CD000F07AF800480047EF
:1001A000791D0008600F0020064880470648004778
:1001B000FEE7FEE7FEE7FEE7FEE7FEE7FEE7FEE717
:1001C000FEE7FEE7151A0008950100082DE9F05F2B
:1001D0000546002092469B468846064681464024B6
:1001E0001BE0284641464746224600F041F8534668
:1001F0005A46C01A914110D311461846224600F0C3
:1002000028F82D1A67EB01084F46224601200021ED
:1002100000F01FF817EB00094E41201EA4F1010465
:10022000DFDC484631462A464346BDE8F09FD2B25D
:1002300001E000F8012B491EFBD270470022F6E7CF
:1002400010B513460A4604461946FFF7F0FF20464C
:1002500010BD202A04DB203A00FA02F1002070478A
:100260009140C2F1200320FA03F3194390407047F4
:10027000202A04DB203A21FA02F00021704721FAFB
:1002800002F3D040C2F12002914008431946704762
:10029000064C074D06E0E06840F0010394E80700D3
:1002A00098471034AC42F6D3FFF778FF581F000888
:1002B000781F0008FEE70000014800F0C7B8000002
:1002C00010020020014800F0C1B8000070020020B8
:1002D000014800F0BBB80000B0010020014800F068
:1002E000B5B800005001002001681823CAB2103AC6
:1002F000B2FBF3F2054B6FF30901032A9B5CC36564
:1003000000D9091D8165084670470000201F0008BC
:1003100010B5014600208B698A6A4FF0C07453B152
:10032000B3F5005F15D072B1012A0CD0022A0AD0B1
:10033000032A09D104E01AB1012A06D0022A03D106
:10034000C96AC90100D5012010BDC96AA142FAD00D
:1003500010BD002AF7D0012AF2D0022AF3D0032AD6
:10036000F3D010BD7047012000F0ACB972B6FEE7C3
:100370001021014800F0A2BA0004024020210148E7
:1003800000F09CBA000402400149D1E90401704721
:10039000300000202DE9F0410446876D00F0A0FAFE
:1003A000064694F835000025022806D080206065B6
:1003B00084F834500120BDE8F0812068016821F004
:1003C000160101602068416921F080014161206CC3
:1003D00008B9A06C20B12068016821F00801016013
:1003E0002068016821F0010101600CE000F078FA5A
:1003F000801B052807D920206065032084F835007C
:1004000084F83450D7E720680068C007EED194F82C
:100410005C103F208840B860012084F8350084F8E3
:1004200034500020C7E790F83510022903D080210E
:10043000416501207047052180F83510006801688A
:1004400021F0010101600020704700002DE9F84310
:1004500004464FF00009CDF8009063484FF4165160
:10046000A56D0068B0FBF1F72E6894F85C100820C9
:1004700000FA01F131420FD021680A6852070BD50A
:100480000A6822F004020A6094F85C108840A860B0
:10049000606D40F00100606594F85C104FF0010859
:1004A00008FA01F0304208D021684969090604D5EC
:1004B000A860606D40F00200606594F85C10042054
:1004C0008840304208D021680968890704D5A860AF
:1004D000606D40F00400606594F85C101020884066
:1004E000304218D021680968090714D5A86020682F
:1004F0000168490304D50068000308D5A16C07E032
:100500000168C90503D4016821F008010160216C6C
:1005100009B12046884794F85C102020884030427A
:1005200031D021680968C9062DD5A86094F8350036
:1005300005282068016806D0490347D500680003F4
:100540001DD4616C1CE021F0160101602068416936
:1005500021F080014161206C08B9A06C20B12068B5
:10056000016821F00801016094F85C103F20884088
:10057000A86084F8358084F83490216D1FE0E16B29
:1005800009B120468847606D00282BD0606DC007F8
:1005900014D0052084F835002068016821F001019D
:1005A00001600098401C0090B84203D820680068A1
:1005B000C007F6D184F8358084F83490E16C0029C6
:1005C00010D001B02046BDE8F04308470168C905D6
:1005D000D5D4016821F01001016084F8358084F8D9
:1005E0003490CCE7BDE8F8830C0000202DE9F04101
:1005F000044600F075F906465CB1022084F8350027
:10060000002584F834502068016821F00101016060
:100610000DE00120BDE8F08100F062F9801B0528A3
:1006200005D920206065032084F83500F2E72068B2
:100630000068C007F0D12268116820480140D4E961
:1006400001031843D4E9033633431843636918435D
:10065000A3691843E3691843236A18430843616A8E
:10066000042903D1D4E90B1319430843106020680F
:100670004069666A20F0070130460E4301270428CE
:100680000CD1A06A0643E06A40B12046FFF740FE65
:1006900020B14020606584F83570BAE72068466173
:1006A0002046FFF721FE94F85C203F2191408160B5
:1006B000656584F835700020ACE700003F8010F0DD
:1006C00070470000044910B50A68024202D0086071
:1006D000FFF7F6FF10BD0000143C01402DE9F84F74
:1006E000DFF8B8A1002201240AF1040B03254FF022
:1006F0000F090BF1040E00BF0B6804FA02F6334039
:10070000B34273D10F7907F00307012F01D0022FF5
:1007100016D187684FEA420805FA08FC27EA0C0759
:10072000D1F80CC00CFA08FC4CEA070CC0F808C061
:100730004768B7430E79C6F3001696403E434660BD
:100740000E79F643B6070DD0C768560005FA06FCC9
:1007500027EA0C07D1F808C00CFA06FC4CEA070C93
:10076000C0F80CC00E7906F00306022E10D1D60890
:1007700000EB8608D8F8206057074FEAD76C09FAD3
:100780000CF7BE430F6907FA0CF73743C8F820701F
:1007900006684FEA420C05FA0CF7BE430F7907F0E2
:1007A000030707FA0CF7374307604E6816F4403F1B
:1007B0006DD03B4E376847F480473760366822F08B
:1007C000030706F480460096364E07EB060CDCF86D
:1007D000086897073F0F09FA07F826EA0806DFF8C6
:1007E000C880404503D14FF000081EE04FE0DFF81D
:1007F000BC80404502D14FF0010816E0DFF8B08020
:10080000404502D14FF002080FE0DFF8A8804045D4
:1008100002D14FF0030808E0DFF89C80404502D188
:100820004FF0040801E04FF0070808FA07F848EA1B
:100830000608CCF80888DAF800605746D1F804C0FA
:100840009E435FEACC3C00D51E433E60DBF800606F
:100850005F46D1F804C09E435FEA8C3C00D51E433E
:100860003E60DEF800607746D1F804C09E435FEA40
:10087000CC2C00D51E433E60084F0C373E68D1F8A3
:1008800004C09E435FEA8C2C00D51E433E60521C80
:10089000102AFFF431AFBDE8F88F0000003C0140A2
:1008A0004438024000300140000002400004024091
:1008B00000080240000C024000100240006908409D
:1008C00000D001207047426921EA02030A4043EA4E
:1008D0000241816170470AB1816170470904FBE7F9
:1008E00001488068704700000000002002488168CD
:1008F0000278114481607047000000200B4810B559
:10090000016841F400710160016841F48061016097
:10091000016841F480710160032000F06FF80F203E
:1009200000F006F800F024F8002010BD003C024062
:1009300070B50D4D04464FF47A712878B1FBF0F094
:100940000A490968B1FBF0F000F000FB48B9102C2F
:1009500007D200222146501E00F030F800206C60C3
:1009600070BD012070BD0000000000200C000020C0
:100970000A4808B5016841F480410160006800F44C
:10098000804000900548001F016841F080510160DF
:10099000006800F08050009008BD0000443802401C
:1009A000002809DB00F01F0201219140400980006E
:1009B00000F1E020C0F8001170470000F0B40E4BC9
:1009C0001B680C46C3F30223C3F10705042D00D9AD
:1009D0000425191D072901D2002300E0DB1E012692
:1009E00006FA05F1491E214099409E40761E1640A8
:1009F0003143F0BC01F0A0B90CED00E0064900F075
:100A0000070208684FF6FF03184040EA0220034A35
:100A100010430860704700000CED00E00000FA058C
:100A20002DE9F0470E46050065D0DFF81481D8F8AF
:100A30000000F7B200F00700B04207D288F800705B
:100A4000D8F8000000F00700B04254D128683D4CAF
:100A5000810712D5400703D5206840F4E05020609C
:100A60002878000703D5206840F4604020602068A3
:100A7000A96820F0F000084320602878C0072DD036
:100A8000304968680839012812D0022813D0032899
:100A900011D00968890700292DDA216821F00301A6
:100AA00001432160FFF71CFF814641F2883A0EE0C6
:100AB00009688903EFE709688901ECE7FFF710FF90
:100AC000A0EB0901514502D90320BDE8F087206859
:100AD000696800F00C00B0EB810FEFD1D8F800107E
:100AE000404601F00701B14207D90770006800F0E5
:100AF0000700B04201D00120E7E72878400705D57C
:100B00002068E96820F4E050084320602878000756
:100B100006D52068296920F4604040EAC1002060C1
:100B200000F038F82168084AC1F30311515CC8404D
:100B30000649086006480068FFF7FAFE0020C4E78F
:100B4000003C024008380240281F00080C0000202A
:100B5000040000200448054900680968044AC1F3FC
:100B60008221515CC84070470C00002008380240C8
:100B7000381F00080448054900680968044AC1F3A1
:100B80004231515CC84070470C00002008380240D8
:100B9000381F0008104810B5006810F00C010F480D
:100BA00018D0042916D0082914D10B4C241F216811
:100BB00001F03F02216821680023C1F38811A1FBE5
:100BC0000001FFF703FB2168C1F30141491C490003
:100BD000B0FBF1F010BD0000083802400024F40022
:100BE0002DE9F84F04006ED02078DFF84C93C00751
:100BF000A9F104054AD009F104000168C1F381019B
:100C0000012908D00068C0F3810002280AD1D9F870
:100C10000000400206D52868800337D560680028A8
:100C2000E1D033E06068B0F5803F10D0B0F5A02F80
:100C3000286810D020F480302860286820F48020B4
:100C400028606068A8B1FFF74BFE06460DE02868F3
:100C500040F48030F4E740F480202860F7E700BFDC
:100C6000FFF73EFE801B642873D828688003F7D501
:100C70000CE0FFF735FE064605E000BFFFF730FE4B
:100C8000801B6428F0D828688003F7D42078DFF828
:100C9000AC8280074FF0000A3ED5A748001D0168CE
:100CA00011F00C0F08D00068C0F3810002280BD1AE
:100CB000D9F80000400207D42868800716D5E068FC
:100CC000012800D112E033E1E068B8B10120C8F892
:100CD0000000FFF705FE064605E000BFFFF700FE37
:100CE000801B0228C0D828688007F7D528682169AA
:100CF00020F0F80040EAC10028600DE0C8F800A02C
:100D0000FFF7EEFD064604E0FFF7EAFD801B022830
:100D10001FD828688007F7D42078000722D5864F8F
:100D200087486169703771B101210160FFF7D8FD13
:100D3000064604E0FFF7D4FD801B022809D8386876
:100D40008007F7D50EE0C0F800A0FFF7C9FD064602
:100D500005E082E0FFF7C4FD801B02287DD83868DB
:100D60008007F7D42078400768D5DFF8CCB100279A
:100D70000BF13C0BDBF80000C0000BD4DBF80010DB
:100D800041F08051CBF80010DBF80000012700F0A3
:100D9000805000906B4E3068C00510D4306840F42D
:100DA00080703060FFF79CFD009005E0FFF798FD34
:100DB0000099401A022850D83068C005F6D55E4E1A
:100DC000A0686C3601280FD00528306810D020F0BC
:100DD00001003060306820F004003060A068B8B1D5
:100DE000FFF77EFD00900FE0306840F00100F4E76F
:100DF00040F004003060F7E7FFF772FD0099411AF8
:100E000041F28830814266D830688007F4D50EE020
:100E1000FFF766FD009007E0FFF762FD0099411AB9
:100E200041F28830814256D830688007F4D42FB11F
:100E3000DBF8001021F08051CBF80010A069C8B396
:100E40003D49091D0968C1F3810102294AD00228E0
:100E5000504607D0C8F8600000E03CE0FFF740FDD6
:100E600004463BE04746C8F86000FFF739FD0646F8
:100E700005E000BFFFF734FD801B02282BD828684F
:100E80008001F7D4D4E907010843A16A2E4A490832
:100E900002EB0141626A41EA8211084394F82C1086
:100EA00040EA0161C9F8001001203866FFF718FD1B
:100EB000044606E03EE000BFFFF712FD001B0228DB
:100EC00009D828688001F7D534E000BFFFF708FD96
:100ED000001B022802D90320BDE8F88F2868800192
:100EE000F4D427E00128F7D0D9F80000E26900F433
:100EF000800191421CD1226A00F03F01914217D13A
:100F000047F6C071626A0140B1EB821F10D1A26A3C
:100F10004FF0FF3300F4403103EB5202B1EB024FCC
:100F200006D194F82C1000F07060B0EB016F01D086
:100F30000120D1E70020CFE70438024000004742FB
:100F4000800E4742007000400000FFFF10B5401EB9
:100F5000B0F1807F01D3012010BD4FF0E02460612B
:100F60000F21601700F0E8FE0020A061072020613B
:100F7000002010BD7047704710B5040003D094F8EE
:100F80003D0010B107E0012010BD002084F83C00B6
:100F9000204600F01FF8022084F83D00211D206843
:100FA00000F046FD012084F8460084F83E0084F8F5
:100FB0003F0084F8400084F8410084F8420084F83F
:100FC000430084F8440084F8450084F83D00002084
:100FD00010BD000008B500680B49884212D10B48CB
:100FE000016841F4003101600068002200F4003023
:100FF000009011461920FFF7E1FCBDE808401920D8
:10100000FFF7CEBC08BD0000004401404438024058
:1010100090F83D10012901D001207047022180F88D
:101020003D100168CA6842F00102CA6000680E49BA
:1010300088420ED0B0F1804F0BD00C49884208D0C6
:101040000B49884205D00B49884202D00A498842A0
:1010500004D1816801F00701062903D0016841F03D
:1010600001010160002070470000014000040040C1
:1010700000080040000C004000400140704770B57F
:101080000446006801694FF00005C943890715D47B
:10109000C168C943890711D4E91E01610120207785
:1010A000206880698007204602D0FFF7E7FF04E050
:1010B00000F098F8204600F096F82577206801693E
:1010C000C943490717D4C168C943490713D46FF00E
:1010D00004010161022020772068806910F4407FBC
:1010E000204602D0FFF7CAFF04E000F07BF820465C
:1010F00000F079F8257720680169C943090716D4FB
:10110000C168C943090712D46FF0080101610420C6
:1011100020772068C0698007204602D0FFF7AEFF25
:1011200004E000F05FF8204600F05DF825772068C5
:101130000169C943C90617D4C168C943C90613D494
:101140006FF010010161082020772068C06910F459
:10115000407F204602D0FFF791FF04E000F042F804
:10116000204600F040F8257720680169C943C90787
:1011700008D1C168C943C90704D1891E016120464D
:1011800000F032F820680169C943090609D4C16832
:10119000C943090605D46FF0800101612046FFF7BD
:1011A000E9FE20680169C943490609D4C168C943F9
:1011B000490605D46FF040010161204600F020F897
:1011C00020680169C94389060BD4C168C9438906EF
:1011D00007D46FF0200101612046BDE87040FFF7A1
:1011E000CABE70BD704770470349884203D10348A7
:1011F000006800F089BE704748000020104401409C
:101200007047704770470000F8B5016804460868E9
:10121000CA684B6910F00F0F4FF0000559D003F06A
:10122000010602F49077374365D0C10705D0D10598
:1012300003D5216C41F001012164410705D5D9078F
:1012400003D0216C41F002012164810705D5D90743
:1012500003D0216C41F004012164010707D502F09D
:101260002001314303D0216C41F008012164216C3D
:1012700000293AD0800604D5900602D5204600F019
:1012800052FC20684069216CC0F38010090700D42B
:1012900060B3204600F020FC20684069400621D55C
:1012A0002068143050E8001F21F0400140E800128F
:1012B000002AF5D1A06BA8B16C490165A06BFFF7BE
:1012C000B2F8002811D0A06B016D01B0BDE8F0406C
:1012D000084783060FD593060DD52046BDE8F84094
:1012E00000F021BC2046FFF78DFFF8BD2046FFF738
:1012F00089FF2564F8BD266B2023012E79D1C6060F
:1013000077D5D60675D508684868009048694006C4
:1013100040D5A16B086840680004000CEAD0A28D9B
:101320008242E7D9E085C869B0F5807F2DD020687A
:101330000C3050E8001F21F4807140E80012002AB0
:10134000F5D12068143050E8001F21F0010140E879
:101350000012002AF5D12068143050E8001F21F057
:10136000400140E80012002AF5D184F83E302563A0
:1013700020680C3050E8001F21F0100140E80012F6
:10138000002AF5D1A06BFFF705F8A08DE18D401A7A
:1013900081B229E0A08DE18D401A81B2E08D002854
:1013A000A8D00029A6D020680C3050E8002F22F4E5
:1013B000907240E80026002EF5D12068143050E8E5
:1013C000002F22F0010240E80026002EF5D184F81B
:1013D0003E30256320680C3050E8002F22F01002C8
:1013E00040E80023002BF5D12046FFF70AFFF8BDA7
:1013F000FFE705062BD5150629D594F83D002128D1
:10140000F5D1A068B0F5805F01D12069B0B1206A44
:10141000411C2162216800784860E08C401E000475
:10142000000CE084E3D12068C16821F08001C16034
:101430002068C16841F04001C160D8E7206A008897
:10144000C0F308004860206A801C2062E5E740067F
:10145000CDD55006CBD5CA68204622F04002CA60DE
:1014600084F83D3000F007F9C1E70000C91A000810
:1014700070B5040004D094F83D00002510B106E0DA
:10148000012070BD84F83C50204600F023F8242051
:1014900084F83D002068C16821F40051C1602046F5
:1014A00000F0A2FB2068016921F4904101612068ED
:1014B000416921F02A0141612068C16841F400516D
:1014C000C1602564202084F83D0084F83E0000209F
:1014D00070BD00002DE9F04786B00446142168462F
:1014E000FEF7ACFEDFF864C10221266858480322EB
:1014F0000723DFF8608100258F064FF0400A4FF484
:10150000806966454CD1524E1436D6F800C04CF076
:10151000100CC6F800C0366806F01006059606687E
:1015200046F001060660006800F0010005905002D8
:101530008DE8230069464046CDE90323FFF7CEF846
:10154000464E4548C846C6E903597561B561F5611F
:101550003562756286E881043046FFF747F808B1C6
:10156000FEF704FF6663B4633B483D4E7838306055
:10157000C6E90175C6E903587561B561F561356263
:1015800030467562FFF732F808B1FEF7EFFEA6634A
:10159000002211462520B463FFF710FA252050E001
:1015A000DFF8C0C066454ED1294E1036D6F800C0CF
:1015B0004CF4003CC6F800C0366806F400360596C8
:1015C000066846F001060660006800F0010005901C
:1015D0000C208DE8230069464046CDE90323FFF740
:1015E0007DF8224E2048B8463060C6E90175C6E94C
:1015F00003597561B561F56135624F4630467562D4
:10160000FEF7F4FF08B1FEF7B1FEA663B463184E0F
:101610001548C6E903577561B561F5613562183043
:10162000756286E801053046FEF7E0FF08B1FEF777
:101630009DFE6663002211462620B463FFF7BEF9C3
:101640002620FFF7ADF906B0BDE8F0870010014095
:101650003038024000000240B864024050010020CF
:10166000B0010020004400408860024010020020C9
:101670007002002070477047FEE70000194808B567
:10168000016841F480010160016801F4800100916A
:10169000016841F4001101600068002200F40010AC
:1016A000009011461020FFF789F91020FFF778F914
:1016B000002211461120FFF781F91120FFF770F980
:1016C000002211463A20FFF779F93A20FFF768F92E
:1016D000002211464620FFF771F9BDE80840462078
:1016E000FFF75EB930380240F0B587B01421684684
:1016F000FEF7A4FD32480024016841F004010160B6
:10170000016801F004010591016841F08001016068
:10171000016801F080010591016841F0010101605B
:10172000016801F001010591016841F002010160C9
:101730000068244E00F002004FF4C04505900022DE
:1017400029463046FFF7C7F81F4F00226021384670
:10175000FFF7C1F800950125CDE9015469463046EF
:101760000394FEF7BBFFE803CDE900046946304669
:101770000294FEF7B3FF4FF488100095CDE9010401
:1017800069463846FEF7AAFF60200090CDE9015473
:10179000694638460394FEF7A1FF3020CDE90004E6
:1017A00069460A480294FEF799FF00221146062076
:1017B000FFF704F90620FFF7F3F807B0F0BD0000CB
:1017C000303802400008024000000240000402409D
:1017D000FEE70000014988600020704730000020CB
:1017E0002DE9F0411546DDE906781E46040002D0D9
:1017F0000FB1164809E04FF0FF30BDE8F081A1427B
:1018000002D12168016003E0084601680029F6D191
:101810000E48001F80688047421904F10C03714193
:10182000A26083E88201094803684BB1D3E90256FC
:10183000551B71EB060506D2236004600020DCE72F
:1018400000212160F9E71846EEE70000340000208F
:1018500070B50D4D6C6813E0A8688047D4E9022389
:10186000801A994104D2A8688047A168081A70BDFF
:1018700020686860226912B1204661699047246837
:10188000002CE9D1002070BD300000207CB50E4D49
:101890000C46064620212846FFF715F8AFF2130044
:1018A000CDE900044FF47A7200233046FFF798FF29
:1018B000064C2078002806D040212846FFF703F880
:1018C0002078401E20707CBD0000024030000020C7
:1018D0007CB50C460546FEF74BFD10B1FEF74EFDFC
:1018E00018B90121064800F012FAAFF21B00CDE949
:1018F0000004322200232846FFF772FF7CBD00005F
:1019000018010020FEB50D46064601E0641CE4B255
:1019100002A9094800F016F80128F7D10748047019
:10192000AFF21F00CDE9000541F2883200233046B6
:10193000FFF756FFFEBD0000180100203000002018
:10194000FEE77047828882B10388821D9A5C0A7024
:1019500001883222491CB1FBF2F302FB1311018012
:101960008188491E81800020704701207047002136
:1019700001804180818070477047FEF7B7BF00004B
:1019800030B593B030216846FEF758FC14210CA8FE
:10199000FEF754FC1D480024016841F080510160AD
:1019A000006800F0805011901948016821F440410E
:1019B00041F4004101600068022500F440401190AC
:1019C0000120039010200490009506950820CDE991
:1019D00007405420CDE9090504200B906846FFF725
:1019E000FFF808B172B6FEE70F20CDE90C054FF401
:1019F0008050CDE90E4002210CA81094FFF710F89A
:101A0000002801D072B6FEE713B030BD4038024066
:101A1000007000400248016841F4700101607047A5
:101A200088ED00E00148FFF72ABB000048000020D5
:101A3000F0B502681D4B1E4C9F031E4D1E4E984272
:101A400007D0B84205D0A04203D0A84201D0B0428E
:101A500004D122F0700C4A6842EA0C02984210D07D
:101A6000B8420ED0A0420CD0A8420AD0B04208D052
:101A7000124CA04205D0124CA04202D0114CA04200
:101A800003D122F44074CA6822434C6922F08002D8
:101A9000224302608A68C2620A688262984201D167
:101AA0000969016301214161F0BD000000000140AE
:101AB0000004004000080040000C004000400140CD
:101AC000004401400048014010B5806B0021C185F1
:101AD000C184FFF797FB10BD01680C3151E8002F5E
:101AE00022F4907241E80023002BF5D101681431F3
:101AF00051E8002F22F0010241E80023002BF5D12C
:101B0000016B012909D101680C3151E8002F22F045
:101B1000100241E80023002BF5D1202180F83E106F
:101B200000210163704708B590F83E10222901D0CA
:101B3000022008BD82684FF480539A4201D10169A6
:101B400021B1816A9A421BD04AB10AE00268816AD7
:101B50005268C2F308020A80816A891C08E002699F
:101B600072B10268526802F07F020A70816A491CF1
:101B70008162C18D491E0904090CC18503D019E099
:101B800002685268F1E70168CA6822F02002CA6060
:101B90000168CA6822F48072CA6001684A6922F04A
:101BA00001024A61202180F83E10016B012903D017
:101BB000FFF760FD002008BD0021016301680C31C2
:101BC00051E8002F22F0100241E80023002BF5D14C
:101BD00001680A68D20602D50A6849680091818DB9
:101BE000FFF70FFBE6E7000070B5044600680169E7
:101BF000E26821F44051114301612169A068E26962
:101C000008436169114308432168CA6849F20C63BB
:101C10009A430243CA6020684169A26921F4407175
:101C20001143416131492068884202D030498842DD
:101C300002D1FEF79FFF01E0FEF78CFFE26900236F
:101C4000192164253226B2F5004F626828D0A0FB26
:101C50000101930F9200FEF7B9FA0146B0FBF5F0CF
:101C60006FF01802504301EB800006EB0010B0FB50
:101C7000F5F000F0F002B1FBF5F002EB0012B1FB61
:101C8000F5F06FF01803584301EB800006EB0010ED
:101C9000B0FBF5F000F00F0021681044886070BDC3
:101CA000A0FB010192185B41FEF790FA0146B0FBE0
:101CB000F5F00201B1FBF5F06FF01803584301EBAA
:101CC000800006EBC000B0FBF5F000F0F80002EB7E
:101CD0004002B1FBF5F0584301EB800006EBC00079
:101CE000B0FBF5F000F00700D6E70000001001405F
:101CF000001401400148FFF787BA0000900000205F
:101D00000148FFF781BA0000D4000020FEE7828876
:101D1000322A01D3012070474388821D995441889B
:101D20003222491CB1FBF2F302FB1311418081887E
:101D3000491C8180002070470907090E002804DB38
:101D400000F1E02080F80014704700F00F0000F16F
:101D5000E02080F8141D704702E008C8121F08C177
:101D6000002AFAD170477047002001E001C1121F1C
:101D7000002AFBD17047000094B0FEF7BFFDFFF7CB
:101D8000FFFDFFF7B1FCFFF779FC32483049002432
:101D900001605221C0E9011440F2E731C0E90314A7
:101DA0008461FFF7E9F808B172B6FEE729482A49CD
:101DB00048304FF4E1350160C0E901540C26C4609D
:101DC000C0E904468461C461FFF752FB08B172B6F2
:101DD000FEE7204821498C300160C0E90154C4600D
:101DE000C0E904468461C461FFF742FB08B172B6E2
:101DF000FEE71848FFF70CF9002000F043F81548FB
:101E0000D030FFF7B4FD1648FFF7E4FC15A11A48DF
:101E1000CDE900014FF47A72002302A8FFF7E0FC3D
:101E200010A11648CDE900013222002308A8FFF7CF
:101E3000D7FC0CA11248CDE9000141F28832002301
:101E40000EA8FFF7CDFC00BFFFF702FDFCE7000086
:101E500000440140480000200010014000440040C0
:101E600089030008313030306D73204359434C45AD
:101E70002074696D657200008D180008D118000883
:101E80000519000870B504460B480C4E002150F8A7
:101E9000240006EB84054200286900F02DF806486E
:101EA0000021103050F82420A86800F025F8012007
:101EB0003119087670BD0000401F00081000002096
:101EC00010B50B4B0B4C002253F82030114604EB9D
:101ED000800005E0046934F8114004B1521C491C2B
:101EE0008B42F7D864204243B2FBF3F0C0B210BD7E
:101EF000401F00081000002002E000BF00F8011B96
:101F0000521EFBD2704700000448D0E90412491C5D
:101F100042F10002C0E904127047000030000020C6
:101F20000006101600061016000000000000000059
:101F3000010203040607080900000000010203046F
:101F40004000000001000000200000002000000010
:101F50000008000020000000781F0008000000209A
:101F600048000000581D0008C01F0008480000205D
:101F7000180F0000681D000801000000100000009C
:101F8000000000000024F400851E0008C11E0008A7
:101F9000E002002000000068E00A00202000006845
:101FA0000000000000000000000000000000000031
:101FB0000000000000000000000000000000000021
:040000050800019559
:00000001FF
